8=FIX.4.4|9=63|35=A|34=1|49=SNDR|52=20121210-12:34:29.054|56=TRGT|98=0|108=30|10=110|8=FIX.4.4|9=135|35=D|34=2|49=SNDR|52=20121210-12:34:29.100|56=TRGT|11=Order#1|21=1|38=20000|40=2|44=34.7|54=1|55=Symbol|60=20121210-09:34:29.077|100=1|10=239|