8=FIX.4.4|9=63|35=A|34=1|49=TRGT|52=20121210-12:34:29.071|56=SNDR|98=0|108=30|10=109|