8=FIX.4.2|9=63|35=A|34=1|49=TRGT|52=20081113-13:14:46.071|56=SNDR|98=0|108=30|10=112|