8=FIX.4.2|9=51|35=5|34=4|49=TRGT|52=20081113-13:15:06.056|56=SNDR|10=075|