8=FIX.4.2|9=57|35=0|34=3|49=TRGT|52=20081113-13:14:53.697|56=SNDR|112=0|10=089|