8=FIX.4.2|9=63|35=A|34=1|49=TRGT|52=20081113-13:14:46.071|56=SNDR|98=0|108=30|10=112|
8=FIX.4.2|9=104|35=C|49=TRGT|56=SNDR|34=2|52=20081218-16:18:21|164=123456|94=0|147=Test e-mail|33=2|58=Line 1|58=Line 2|10=093|
8=FIX.4.2|9=57|35=0|34=3|49=TRGT|52=20081113-13:14:53.697|56=SNDR|112=0|10=089|
8=FIX.4.2|9=51|35=5|34=4|49=TRGT|52=20081113-13:15:06.056|56=SNDR|10=075|
