8=FIX.4.2|9=104|35=C|49=TRGT|56=SNDR|34=2|52=20081218-16:18:21|164=123456|94=0|147=Test e-mail|33=2|58=Line 1|58=Line 2|10=093|